:020000040000FA
:100000000C9462000C948A000C948A000C948A0070
:100010000C948A000C948A000C948A000C948A0038
:100020000C948A000C948A000C948A000C948A0028
:100030000C948A000C948A000C948A000C948A0018
:100040000C94B6040C948A000C948A000C948A00D8
:100050000C948A000C948A000C948A000C948A00F8
:100060000C948A000C948A000000000024002700F1
:100070002A0000000000250028002B0000000000DE
:1000800023002600290004040404040404040202DA
:100090000202020203030303030301020408102007
:1000A0004080010204081020010204081020000012
:1000B0000008000201000003040700000000000027
:1000C0000000E10611241FBECFEFD8E0DEBFCDBF98
:1000D00011E0A0E0B1E0E6EDFEE002C005900D9277
:1000E000A43CB107D9F722E0A4ECB1E001C01D9215
:1000F000AF36B207E1F710E0C2E6D0E004C02197C6
:10010000FE010E946307C136D107C9F70E940005AE
:100110000C9469070C94000096E0899FD00111248B
:10012000A851BE4F90967C936E935F9791E0919605
:100130009C939197E0915502F09156029091540250
:10014000992339F0309751F0811108C08091040251
:100150000994309719F05C968C91FACF0895CF925C
:10016000DF92EF92FF920F931F9396E0899FF00129
:100170001124E851FE4F11A2278D30A12130310505
:1001800051F178F02230310509F451C023303105A6
:1001900009F452C01F910F91FF90EF90DF90CF9024
:1001A00008956623B9F361E070E00E948C002FB7D8
:1001B000F8948091E4019091E501A091E601B0915D
:1001C000E7012FBF8093400290934102A093420227
:1001D000B0934302DFCF9FB7F894C090E401D09072
:1001E000E501E090E601F090E7019FBF0091400239
:1001F000109141022091420230914302C01AD10A6B
:10020000E20AF30A009152021091530230E020E01A
:100210000C151D052E053F0550F462E070E01F919E
:100220000F91FF90EF90DF90CF900C948C006111B4
:10023000B1CF63E070E0F3CF70E060E0F0CFAF9259
:10024000BF92CF92DF92EF92FF920F931F93CF93C3
:10025000DF936C017B018B01040F151FEB015E0125
:10026000AE18BF08C017D10759F06991D601ED91BA
:10027000FC910190F081E02DC6010995892B79F759
:10028000C501DF91CF911F910F91FF90EF90DF900B
:10029000CF90BF90AF900895833081F028F48130E3
:1002A00099F08230A9F008958730A9F08830C9F01C
:1002B0008430B1F4809180008F7D03C080918000F4
:1002C0008F7780938000089584B58F7784BD0895DB
:1002D00084B58F7DFBCF8091B0008F778093B00085
:1002E00008958091B0008F7DF9CFCF93DF93282FB1
:1002F00030E0F901E255FF4F8491F901E656FF4FD6
:10030000D491F901EA57FF4FC491CC23A1F0811198
:100310000E944C01EC2FF0E0EE0FFF1FE458FF4F5E
:10032000A591B491EC91ED2381E090E009F480E097
:10033000DF91CF91089580E090E0FACF862F0C9462
:1003400075011F93CF93DF93282F30E0F901E25519
:10035000FF4F8491F901E656FF4FD491F901EA5716
:10036000FF4FC491CC23A9F0162F81110E944C019C
:10037000EC2FF0E0EE0FFF1FEE58FF4FA591B49168
:100380008FB7F894EC91111108C0D095DE23DC935F
:100390008FBFDF91CF911F910895DE2BF8CF862F6D
:1003A000642F0C94A101CF93DF9390E0FC01E656FB
:1003B000FF4F24918A579F4FFC0184918823C9F0F5
:1003C00090E0880F991FFC01E859FF4FA591B49167
:1003D000FC01EE58FF4FC591D49161110DC09FB73C
:1003E000F8948C91209582238C93888128232883EC
:1003F0009FBFDF91CF910895623051F49FB7F89479
:100400003C91822F809583238C93E8812E2BEFCF14
:100410008FB7F894EC912E2B2C938FBFEACF862FB9
:10042000642F0C94D3013FB7F8948091DE01909132
:10043000DF01A091E001B091E10126B5A89B05C0C4
:100440002F3F19F00196A11DB11D3FBFBA2FA92F53
:10045000982F8827BC01CD01620F711D811D911D50
:1004600042E0660F771F881F991F4A95D1F70895BC
:100470008F929F92AF92BF92CF92DF92EF92FF92B4
:100480004B015C010E9413026B017C010E9413026C
:100490006C197D098E099F09683E7340810591059D
:1004A000A8F321E0821A9108A108B10888EEC80ECD
:1004B00083E0D81EE11CF11C81149104A104B10455
:1004C00029F7FF90EF90DF90CF90BF90AF909F9073
:1004D0008F900895089590E080E00895FC010190C8
:1004E0000020E9F73197AF01481B590BBC0187E5A4
:1004F00092E00C941F01CF93DF93EC0160E08E81BA
:100500000E94A10161E08E810E94A10160E08E81C4
:100510000E94A1018BE891E00197F1F7DF91CF9163
:100520000895CF92DF92EF92FF920F931F93CF9394
:10053000DF936C017C0187E0E80EF11CD0E0C0E0A5
:10054000062F10E0B8010C2E02C0759567950A942D
:10055000E2F76170F70181917F010E94A10121966C
:10056000C430D10579F7C601DF91CF911F910F916A
:10057000FF90EF90DF90CF900C947B02CF92DF92B0
:10058000EF92FF920F931F93CF93DF93EC01F62E20
:10059000642F8C810E94A1018D818F3F19F060E052
:1005A0000E94A1010F2D10E08F8584FF25C06E01F0
:1005B00087E0C80ED11CF12CE12CB8010E2C02C032
:1005C000759567950A94E2F76170F60181916F0164
:1005D0000E94A101FFEFEF1AFF0A88E0E816F1047C
:1005E00061F7CE01DF91CF911F910F91FF90EF90B6
:1005F000DF90CF900C947B02B80184E075956795ED
:100600008A95E1F7CE010E9491026F2DCE01DF9114
:10061000CF911F910F91FF90EF90DF90CF900C94AE
:10062000910240E0682F87E592E00C94BE0281E0E1
:100630000E9411038BE39FE10197F1F70895CF9397
:10064000DF93823029F4909166029860909366025D
:1006500080936A0210926B0280E480936C0280E1C6
:1006600080936D0280E580936E0261E080915B0271
:100670000E94D30180915C028F3F19F061E00E94DB
:10068000D30161E080915D020E94D301C7E5D2E011
:100690009E01275532408091660284FD0BC084E0A4
:1006A00090E021962817390744F461E08E810E947A
:1006B000D301EECF88E090E0F4CF8BE39DE001978B
:1006C000F1F760E080915B020E94A10160E08091FF
:1006D0005D020E94A10180915C028F3F19F060E0F1
:1006E0000E94A1018091660284FD34C063E087E529
:1006F00092E00E949102CBE4D6E4CE010197F1F79B
:1007000063E087E592E00E9491022197F1F763E0B0
:1007100087E592E00E94910283E592E00197F1F76C
:1007200062E087E592E00E94910280916602806219
:100730000E94110384E0809367028CE00E94110301
:100740000E94170382E08093680286E0DF91CF91D8
:100750000C94110380620E9411038BE496E40197CC
:10076000F1F78091660280620E94110383E592E0B6
:100770000197F1F78091660280620E941103D5CF44
:1007800090916A02691710F06FEF690FE62FF0E0A1
:10079000E95AFD4F9489890F80680C9411030F93D7
:1007A0001F93CF93DF93009107021091080201304D
:1007B000110509F05BC0C82F8091E2019091E3011F
:1007C000892B31F40E9417031093E3010093E20197
:1007D00060E080E00E94C00389E291E00E946E0226
:1007E00061E08091C4010E94C003C33209F486C055
:1007F000CA3209F096C08091C6019091C701FC01F0
:1008000031912091C801A9ECB1E04496311133C077
:10081000211138C00E94170360E080E00E94C003ED
:100820008AE391E00E946E0261E080E00E94C003D2
:1008300089E491E00E946E0261E08DE00E94A101D6
:1008400060ED77E080E090E00E94380260E08DE0AB
:100850000E94A1011092C5011092C4011092E301FF
:100860001092E2011092DC011092C801DF91CF9149
:100870001F910F910895321305C031912D918E175C
:100880009F0721F60E94170360E080E00E94C003EA
:100890008AE591E00E946E0261E080E00E94C00360
:1008A0008AE691E00E946E02C5E0D0E08091670286
:1008B0008B7F8093670288600E9411036AEF70E06B
:1008C00080E090E00E94380280916702982F946047
:1008D000909367028C600E9411036AEF70E080E0E1
:1008E00090E00E9438021092C5011092C40110924B
:1008F000E3011092E2012197C9F6B4CF1092DC0116
:100900001092C80160E080E00E94C0030E941703BB
:100910001092C5011092C4011092E3011092E201FD
:10092000A5CFE091DC01E33169F091E09E0F909357
:10093000DC01F0E0EA53FE4FC283E92FF0E0EA5316
:10094000FE4F12828BE791E00E946E028091C401FB
:100950009091C50101969093C5018093C40186CF03
:1009600041E00E94BE0281E090E008951F920F9244
:100970000FB60F9211242F933F938F939F93AF93B2
:10098000BF938091E4019091E501A091E601B091BF
:10099000E7013091DD0123E0230F2D3758F5019653
:1009A000A11DB11D2093DD018093E4019093E50129
:1009B000A093E601B093E7018091DE019091DF0101
:1009C000A091E001B091E1010196A11DB11D8093BC
:1009D000DE019093DF01A093E001B093E101BF91AC
:1009E000AF919F918F913F912F910F900FBE0F90DC
:1009F0001F90189526E8230F0296A11DB11DD2CF96
:100A0000789484B5826084BD84B5816084BD85B5E9
:100A1000826085BD85B5816085BD80916E008160F5
:100A200080936E001092810080918100826080939B
:100A3000810080918100816080938100809180009D
:100A40008160809380008091B10084608093B100C8
:100A50008091B00081608093B00080917A008460C2
:100A600080937A0080917A00826080937A008091EE
:100A70007A00816080937A0080917A008068809308
:100A80007A001092C10082E00E941F0360E080E0C3
:100A90000E94C0038DE791E00E946E0261E080E059
:100AA0000E94C00389E891E00E946E0264EF71E049
:100AB00080E090E00E9438020E9417038FEC93E0E0
:100AC0009093560280935502812C912C540183946B
:100AD00022242A94322C50E0652E50E0752E61E0DD
:100AE0008DE00E94D3018091E2019091E301892B76
:100AF00069F560E080E00E94C0038AE991E00E940D
:100B00006E0261E080E00E94C0038CEA91E00E94E6
:100B10006E02809167028B7F8093670288600E94DB
:100B200011036AEF70E080E090E00E94380280914B
:100B30006702982F9460909367028C600E94110363
:100B40006AEF70E080E090E00E94380281E08093DC
:100B500054028FB7F8944091E4015091E5016091FF
:100B6000E6017091E7018FBF8091440290914502A8
:100B7000A0914602B0914702481B590B6A0B7B0BB0
:100B80008091500290915102B0E0A0E0C0E0841743
:100B90009507A607B70748F0109254026114710434
:100BA00009F49DCF0E9400009ACF80914E02C81791
:100BB00060F4E0914A02F0914B02EC0FF11D62E00B
:100BC00080810E94D301CF5FF0CF512C80914F02E2
:100BD000581608F05FC0052D10E0E0914C02F0912E
:100BE0004D02E00FF11F61E080810E94D301E0918E
:100BF0004C02F0914D02E00FF11F60E080810E94F5
:100C0000A101D501C401052C04C0880F991FAA1F9A
:100C1000BB1F0A94D2F76C017C01E094F094412C44
:100C200080914E024816F8F4C42DD0E0E0914A02BB
:100C3000F0914B02EC0FFD1F80810E9475012496FC
:100C4000CC0FDD1FC851DE4F892B41F4888199817B
:100C50008C299D29998388834394E2CF8881998147
:100C60008E219F21F7CFE0914C02F0914D02E00FD1
:100C7000F11F61E080810E94A10180914C0290915E
:100C80004D02080F191F60E0F80180810E94D30116
:100C900053949CCFC8EED1E0FE01878D90A1892BA3
:100CA00021F4148E368E258E11A2369652E0E4324F
:100CB000F50799F710E080914E02181708F053C01D
:100CC00000E0E12EF12CEE0CFF1CC70180519E4F7D
:100CD0007C0120914F02021708F043C0F7016081A8
:100CE0007181002E02C0769567950A94E2F7129FF3
:100CF00090011124200F311DE8EEF1E080E0458DD8
:100D0000568D2417350709F45AC08F5F36968A30FE
:100D1000B1F760FF24C0E8EEF1E090E080E0448DA0
:100D2000411118C0E0914802F0914902E20FF31F0F
:100D3000408156E0589FF001599FF00D1124E85171
:100D4000FE4F448F368F258F10A2178E61E00E94D0
:100D5000AF0005C0019636968A30910501F70F5F06
:100D6000B8CF1F5FA8CF80E099A19111892F269657
:100D700092E0C432D907C1F79FB7F8944091E401DB
:100D80005091E5016091E6017091E7019FBF4093AA
:100D900044025093450260934602709347028823B1
:100DA00009F4FACE80910902882309F4F5CE8091E6
:100DB000070290910802019709F0EECEEFCE617024
:100DC000C6CF8DEB91E09093C7018093C60110923E
:100DD000DC011092C80110925A021092590281E26D
:100DE00091E090935802809357028CE080935B02CD
:100DF0008FEF80935C028BE080935D028AE08093AA
:100E00005E0289E080935F0288E08093600287E061
:100E10008093610210926202109263021092640247
:100E2000109265021092660281E00E941F031092E8
:100E3000EA011092EE011092ED011092EF0187E1AC
:100E400091E09093E9018093E801E4E0F2E0108200
:100E5000148213821582369682E0E034F807B9F7DF
:100E600083E091E090934B0280934A0280E091E00E
:100E700090934D0280934C0284E080934E0283E075
:100E800080934F0287E091E090934902809348025B
:100E90008AE090E0909351028093500284EF91E0B9
:100EA0009093530280935202109256021092550270
:100EB000109244021092450210924602109247028C
:100EC000109254020895EE0FFF1F0590F491E02D4B
:100ED0000994F894FFCF0405060302010031323370
:100EE0003435363738392A3023000000000F02CF5E
:100EF000019E0100000000B0041F016B026A024B5A
:100F00006F6465203A20202020202020202020000F
:100F1000204B4F4445204449544552494D410020FF
:100F200053696C61686B616E204D6173756B210054
:100F300020204B4F4445204449544F4C414B200006
:100F40003D3D3D3D3D3D3D3D3D3D3D3D3D3D3D3DD1
:100F5000002A00506F776572204F6E2E2E2E002EC5
:100F60002E2E627920545433414243442E2E2E00BB
:100F700050696E747520456C656B74726F6E696B29
:100F800021004D6173756B616E204B6F64652E2E71
:0A0F90002E2E0031323334353600C6
:107E0000112484B714BE81FFF0D085E080938100F7
:107E100082E08093C00088E18093C10086E0809377
:107E2000C20080E18093C4008EE0C9D0259A86E02C
:107E300020E33CEF91E0309385002093840096BBD3
:107E4000B09BFECF1D9AA8958150A9F7CC24DD24C4
:107E500088248394B5E0AB2EA1E19A2EF3E0BF2EE7
:107E6000A2D0813461F49FD0082FAFD0023811F036
:107E7000013811F484E001C083E08DD089C08234E0
:107E800011F484E103C0853419F485E0A6D080C0E4
:107E9000853579F488D0E82EFF2485D0082F10E0AE
:107EA000102F00270E291F29000F111F8ED06801E7
:107EB0006FC0863521F484E090D080E0DECF843638
:107EC00009F040C070D06FD0082F6DD080E0C81688
:107ED00080E7D80618F4F601B7BEE895C0E0D1E017
:107EE00062D089930C17E1F7F0E0CF16F0E7DF06D8
:107EF00018F0F601B7BEE89568D007B600FCFDCFD4
:107F0000A601A0E0B1E02C9130E011968C91119780
:107F100090E0982F8827822B932B1296FA010C0160
:107F200087BEE89511244E5F5F4FF1E0A038BF0790
:107F300051F7F601A7BEE89507B600FCFDCF97BE46
:107F4000E89526C08437B1F42ED02DD0F82E2BD052
:107F50003CD0F601EF2C8F010F5F1F4F84911BD097
:107F6000EA94F801C1F70894C11CD11CFA94CF0C13
:107F7000D11C0EC0853739F428D08EE10CD085E9AC
:107F80000AD08FE07ACF813511F488E018D01DD067
:107F900080E101D065CF982F8091C00085FFFCCF94
:107FA0009093C60008958091C00087FFFCCF809118
:107FB000C00084FD01C0A8958091C6000895E0E648
:107FC000F0E098E1908380830895EDDF803219F02E
:107FD00088E0F5DFFFCF84E1DECF1F93182FE3DFCA
:107FE0001150E9F7F2DF1F91089580E0E8DFEE27F6
:047FF000FF270994CA
:027FFE00040479
:00000001FF
